{
  "_format": "hh-sol-artifact-1",
  "contractName": "ElonNFT",
  "sourceName": "contracts/Elon.sol",
  "abi": [
    {
      "inputs": [],
      "stateMutability": "nonpayable",
      "type": "constructor"
    },
    {
      "inputs": [
        {
          "internalType": "address",
          "name": "sender",
          "type": "address"
        },
        {
          "internalType": "uint256",
          "name": "tokenId",
          "type": "uint256"
        },
        {
          "internalType": "address",
          "name": "owner",
          "type": "address"
        }
      ],
      "name": "ERC721IncorrectOwner",
      "type": "error"
    },
    {
      "inputs": [
        {
          "internalType": "address",
          "name": "operator",
          "type": "address"
        },
        {
          "internalType": "uint256",
          "name": "tokenId",
          "type": "uint256"
        }
      ],
      "name": "ERC721InsufficientApproval",
      "type": "error"
    },
    {
      "inputs": [
        {
          "internalType": "address",
          "name": "approver",
          "type": "address"
        }
      ],
      "name": "ERC721InvalidApprover",
      "type": "error"
    },
    {
      "inputs": [
        {
          "internalType": "address",
          "name": "operator",
          "type": "address"
        }
      ],
      "name": "ERC721InvalidOperator",
      "type": "error"
    },
    {
      "inputs": [
        {
          "internalType": "address",
          "name": "owner",
          "type": "address"
        }
      ],
      "name": "ERC721InvalidOwner",
      "type": "error"
    },
    {
      "inputs": [
        {
          "internalType": "address",
          "name": "receiver",
          "type": "address"
        }
      ],
      "name": "ERC721InvalidReceiver",
      "type": "error"
    },
    {
      "inputs": [
        {
          "internalType": "address",
          "name": "sender",
          "type": "address"
        }
      ],
      "name": "ERC721InvalidSender",
      "type": "error"
    },
    {
      "inputs": [
        {
          "internalType": "uint256",
          "name": "tokenId",
          "type": "uint256"
        }
      ],
      "name": "ERC721NonexistentToken",
      "type": "error"
    },
    {
      "anonymous": false,
      "inputs": [
        {
          "indexed": true,
          "internalType": "address",
          "name": "owner",
          "type": "address"
        },
        {
          "indexed": true,
          "internalType": "address",
          "name": "approved",
          "type": "address"
        },
        {
          "indexed": true,
          "internalType": "uint256",
          "name": "tokenId",
          "type": "uint256"
        }
      ],
      "name": "Approval",
      "type": "event"
    },
    {
      "anonymous": false,
      "inputs": [
        {
          "indexed": true,
          "internalType": "address",
          "name": "owner",
          "type": "address"
        },
        {
          "indexed": true,
          "internalType": "address",
          "name": "operator",
          "type": "address"
        },
        {
          "indexed": false,
          "internalType": "bool",
          "name": "approved",
          "type": "bool"
        }
      ],
      "name": "ApprovalForAll",
      "type": "event"
    },
    {
      "anonymous": false,
      "inputs": [
        {
          "indexed": false,
          "internalType": "uint256",
          "name": "_fromTokenId",
          "type": "uint256"
        },
        {
          "indexed": false,
          "internalType": "uint256",
          "name": "_toTokenId",
          "type": "uint256"
        }
      ],
      "name": "BatchMetadataUpdate",
      "type": "event"
    },
    {
      "anonymous": false,
      "inputs": [
        {
          "indexed": false,
          "internalType": "uint256",
          "name": "_tokenId",
          "type": "uint256"
        }
      ],
      "name": "MetadataUpdate",
      "type": "event"
    },
    {
      "anonymous": false,
      "inputs": [
        {
          "indexed": true,
          "internalType": "address",
          "name": "from",
          "type": "address"
        },
        {
          "indexed": true,
          "internalType": "address",
          "name": "to",
          "type": "address"
        },
        {
          "indexed": true,
          "internalType": "uint256",
          "name": "tokenId",
          "type": "uint256"
        }
      ],
      "name": "Transfer",
      "type": "event"
    },
    {
      "inputs": [
        {
          "internalType": "address",
          "name": "to",
          "type": "address"
        },
        {
          "internalType": "uint256",
          "name": "tokenId",
          "type": "uint256"
        }
      ],
      "name": "approve",
      "outputs": [],
      "stateMutability": "nonpayable",
      "type": "function"
    },
    {
      "inputs": [
        {
          "internalType": "address",
          "name": "owner",
          "type": "address"
        }
      ],
      "name": "balanceOf",
      "outputs": [
        {
          "internalType": "uint256",
          "name": "",
          "type": "uint256"
        }
      ],
      "stateMutability": "view",
      "type": "function"
    },
    {
      "inputs": [
        {
          "internalType": "uint256",
          "name": "tokenId",
          "type": "uint256"
        }
      ],
      "name": "getApproved",
      "outputs": [
        {
          "internalType": "address",
          "name": "",
          "type": "address"
        }
      ],
      "stateMutability": "view",
      "type": "function"
    },
    {
      "inputs": [
        {
          "internalType": "address",
          "name": "owner",
          "type": "address"
        },
        {
          "internalType": "address",
          "name": "operator",
          "type": "address"
        }
      ],
      "name": "isApprovedForAll",
      "outputs": [
        {
          "internalType": "bool",
          "name": "",
          "type": "bool"
        }
      ],
      "stateMutability": "view",
      "type": "function"
    },
    {
      "inputs": [],
      "name": "mintNFT",
      "outputs": [
        {
          "internalType": "uint256",
          "name": "",
          "type": "uint256"
        }
      ],
      "stateMutability": "nonpayable",
      "type": "function"
    },
    {
      "inputs": [],
      "name": "name",
      "outputs": [
        {
          "internalType": "string",
          "name": "",
          "type": "string"
        }
      ],
      "stateMutability": "view",
      "type": "function"
    },
    {
      "inputs": [
        {
          "internalType": "uint256",
          "name": "tokenId",
          "type": "uint256"
        }
      ],
      "name": "ownerOf",
      "outputs": [
        {
          "internalType": "address",
          "name": "",
          "type": "address"
        }
      ],
      "stateMutability": "view",
      "type": "function"
    },
    {
      "inputs": [
        {
          "internalType": "address",
          "name": "from",
          "type": "address"
        },
        {
          "internalType": "address",
          "name": "to",
          "type": "address"
        },
        {
          "internalType": "uint256",
          "name": "tokenId",
          "type": "uint256"
        }
      ],
      "name": "safeTransferFrom",
      "outputs": [],
      "stateMutability": "nonpayable",
      "type": "function"
    },
    {
      "inputs": [
        {
          "internalType": "address",
          "name": "from",
          "type": "address"
        },
        {
          "internalType": "address",
          "name": "to",
          "type": "address"
        },
        {
          "internalType": "uint256",
          "name": "tokenId",
          "type": "uint256"
        },
        {
          "internalType": "bytes",
          "name": "data",
          "type": "bytes"
        }
      ],
      "name": "safeTransferFrom",
      "outputs": [],
      "stateMutability": "nonpayable",
      "type": "function"
    },
    {
      "inputs": [
        {
          "internalType": "address",
          "name": "operator",
          "type": "address"
        },
        {
          "internalType": "bool",
          "name": "approved",
          "type": "bool"
        }
      ],
      "name": "setApprovalForAll",
      "outputs": [],
      "stateMutability": "nonpayable",
      "type": "function"
    },
    {
      "inputs": [
        {
          "internalType": "bytes4",
          "name": "interfaceId",
          "type": "bytes4"
        }
      ],
      "name": "supportsInterface",
      "outputs": [
        {
          "internalType": "bool",
          "name": "",
          "type": "bool"
        }
      ],
      "stateMutability": "view",
      "type": "function"
    },
    {
      "inputs": [],
      "name": "symbol",
      "outputs": [
        {
          "internalType": "string",
          "name": "",
          "type": "string"
        }
      ],
      "stateMutability": "view",
      "type": "function"
    },
    {
      "inputs": [
        {
          "internalType": "uint256",
          "name": "tokenId",
          "type": "uint256"
        }
      ],
      "name": "tokenURI",
      "outputs": [
        {
          "internalType": "string",
          "name": "",
          "type": "string"
        }
      ],
      "stateMutability": "view",
      "type": "function"
    },
    {
      "inputs": [
        {
          "internalType": "address",
          "name": "from",
          "type": "address"
        },
        {
          "internalType": "address",
          "name": "to",
          "type": "address"
        },
        {
          "internalType": "uint256",
          "name": "tokenId",
          "type": "uint256"
        }
      ],
      "name": "transferFrom",
      "outputs": [],
      "stateMutability": "nonpayable",
      "type": "function"
    }
  ],
  "bytecode": "0x60806040523480156200001157600080fd5b506040518060400160405280600881526020017f456c6f6e4d75736b0000000000000000000000000000000000000000000000008152506040518060400160405280600481526020017f454c4f4e0000000000000000000000000000000000000000000000000000000081525081600090816200008f919062000324565b508060019081620000a1919062000324565b5050506200040b565b600081519050919050565b7f4e487b7100000000000000000000000000000000000000000000000000000000600052604160045260246000fd5b7f4e487b7100000000000000000000000000000000000000000000000000000000600052602260045260246000fd5b600060028204905060018216806200012c57607f821691505b602082108103620001425762000141620000e4565b5b50919050565b60008190508160005260206000209050919050565b60006020601f8301049050919050565b600082821b905092915050565b600060088302620001ac7fffffffffffffffffffffffffffffffffffffffffffffffffffffffffffffffff826200016d565b620001b886836200016d565b95508019841693508086168417925050509392505050565b6000819050919050565b6000819050919050565b600062000205620001ff620001f984620001d0565b620001da565b620001d0565b9050919050565b6000819050919050565b6200022183620001e4565b6200023962000230826200020c565b8484546200017a565b825550505050565b600090565b6200025062000241565b6200025d81848462000216565b505050565b5b8181101562000285576200027960008262000246565b60018101905062000263565b5050565b601f821115620002d4576200029e8162000148565b620002a9846200015d565b81016020851015620002b9578190505b620002d1620002c8856200015d565b83018262000262565b50505b505050565b600082821c905092915050565b6000620002f960001984600802620002d9565b1980831691505092915050565b6000620003148383620002e6565b9150826002028217905092915050565b6200032f82620000aa565b67ffffffffffffffff8111156200034b576200034a620000b5565b5b62000357825462000113565b6200036482828562000289565b600060209050601f8311600181146200039c576000841562000387578287015190505b62000393858262000306565b86555062000403565b601f198416620003ac8662000148565b60005b82811015620003d657848901518255600182019150602085019450602081019050620003af565b86831015620003f65784890151620003f2601f891682620002e6565b8355505b6001600288020188555050505b505050505050565b612533806200041b6000396000f3fe608060405234801561001057600080fd5b50600436106100ea5760003560e01c80636352211e1161008c578063a22cb46511610066578063a22cb4651461025d578063b88d4fde14610279578063c87b56dd14610295578063e985e9c5146102c5576100ea565b80636352211e146101df57806370a082311461020f57806395d89b411461023f576100ea565b8063095ea7b3116100c8578063095ea7b31461016d57806314f710fe1461018957806323b872dd146101a757806342842e0e146101c3576100ea565b806301ffc9a7146100ef57806306fdde031461011f578063081812fc1461013d575b600080fd5b6101096004803603810190610104919061192f565b6102f5565b6040516101169190611977565b60405180910390f35b610127610356565b6040516101349190611a22565b60405180910390f35b61015760048036038101906101529190611a7a565b6103e8565b6040516101649190611ae8565b60405180910390f35b61018760048036038101906101829190611b2f565b610404565b005b61019161041a565b60405161019e9190611b7e565b60405180910390f35b6101c160048036038101906101bc9190611b99565b610492565b005b6101dd60048036038101906101d89190611b99565b610594565b005b6101f960048036038101906101f49190611a7a565b6105b4565b6040516102069190611ae8565b60405180910390f35b61022960048036038101906102249190611bec565b6105c6565b6040516102369190611b7e565b60405180910390f35b610247610680565b6040516102549190611a22565b60405180910390f35b61027760048036038101906102729190611c45565b610712565b005b610293600480360381019061028e9190611dba565b610728565b005b6102af60048036038101906102aa9190611a7a565b610745565b6040516102bc9190611a22565b60405180910390f35b6102df60048036038101906102da9190611e3d565b610858565b6040516102ec9190611977565b60405180910390f35b6000634906490660e01b7bffffffffffffffffffffffffffffffffffffffffffffffffffffffff1916827bffffffffffffffffffffffffffffffffffffffffffffffffffffffff1916148061034f575061034e826108ec565b5b9050919050565b60606000805461036590611eac565b80601f016020809104026020016040519081016040528092919081815260200182805461039190611eac565b80156103de5780601f106103b3576101008083540402835291602001916103de565b820191906000526020600020905b8154815290600101906020018083116103c157829003601f168201915b5050505050905090565b60006103f3826109ce565b506103fd82610a56565b9050919050565b6104168282610411610a93565b610a9b565b5050565b60006007600081548092919061042f90611f0c565b9190505550600060075490506104453382610aad565b6104688160405180610100016040528060c9815260200161243560c99139610ba6565b61048b604051806060016040528060238152602001612412602391398233610c02565b8091505090565b600073ffffffffffffffffffffffffffffffffffffffff168273ffffffffffffffffffffffffffffffffffffffff16036105045760006040517f64a0ae920000000000000000000000000000000000000000000000000000000081526004016104fb9190611ae8565b60405180910390fd5b60006105188383610513610a93565b610ca1565b90508373ffffffffffffffffffffffffffffffffffffffff168173ffffffffffffffffffffffffffffffffffffffff161461058e578382826040517f64283d7b00000000000000000000000000000000000000000000000000000000815260040161058593929190611f54565b60405180910390fd5b50505050565b6105af83838360405180602001604052806000815250610728565b505050565b60006105bf826109ce565b9050919050565b60008073ffffffffffffffffffffffffffffffffffffffff168273ffffffffffffffffffffffffffffffffffffffff16036106395760006040517f89c62b640000000000000000000000000000000000000000000000000000000081526004016106309190611ae8565b60405180910390fd5b600360008373ffffffffffffffffffffffffffffffffffffffff1673ffffffffffffffffffffffffffffffffffffffff168152602001908152602001600020549050919050565b60606001805461068f90611eac565b80601f01602080910402602001604051908101604052809291908181526020018280546106bb90611eac565b80156107085780601f106106dd57610100808354040283529160200191610708565b820191906000526020600020905b8154815290600101906020018083116106eb57829003601f168201915b5050505050905090565b61072461071d610a93565b8383610ebb565b5050565b610733848484610492565b61073f8484848461102a565b50505050565b6060610750826109ce565b50600060066000848152602001908152602001600020805461077190611eac565b80601f016020809104026020016040519081016040528092919081815260200182805461079d90611eac565b80156107ea5780601f106107bf576101008083540402835291602001916107ea565b820191906000526020600020905b8154815290600101906020018083116107cd57829003601f168201915b5050505050905060006107fb6111e1565b90506000815103610810578192505050610853565b60008251111561084557808260405160200161082d929190611fc7565b60405160208183030381529060405292505050610853565b61084e846111f8565b925050505b919050565b6000600560008473ffffffffffffffffffffffffffffffffffffffff1673ffffffffffffffffffffffffffffffffffffffff16815260200190815260200160002060008373ffffffffffffffffffffffffffffffffffffffff1673ffffffffffffffffffffffffffffffffffffffff16815260200190815260200160002060009054906101000a900460ff16905092915050565b60007f80ac58cd000000000000000000000000000000000000000000000000000000007bffffffffffffffffffffffffffffffffffffffffffffffffffffffff1916827bffffffffffffffffffffffffffffffffffffffffffffffffffffffff191614806109b757507f5b5e139f000000000000000000000000000000000000000000000000000000007bffffffffffffffffffffffffffffffffffffffffffffffffffffffff1916827bffffffffffffffffffffffffffffffffffffffffffffffffffffffff1916145b806109c757506109c682611261565b5b9050919050565b6000806109da836112cb565b9050600073ffffffffffffffffffffffffffffffffffffffff168173ffffffffffffffffffffffffffffffffffffffff1603610a4d57826040517f7e273289000000000000000000000000000000000000000000000000000000008152600401610a449190611b7e565b60405180910390fd5b80915050919050565b60006004600083815260200190815260200160002060009054906101000a900473ffffffffffffffffffffffffffffffffffffffff169050919050565b600033905090565b610aa88383836001611308565b505050565b600073ffffffffffffffffffffffffffffffffffffffff168273ffffffffffffffffffffffffffffffffffffffff1603610b1f5760006040517f64a0ae92000000000000000000000000000000000000000000000000000000008152600401610b169190611ae8565b60405180910390fd5b6000610b2d83836000610ca1565b9050600073ffffffffffffffffffffffffffffffffffffffff168173ffffffffffffffffffffffffffffffffffffffff1614610ba15760006040517f73c6ac6e000000000000000000000000000000000000000000000000000000008152600401610b989190611ae8565b60405180910390fd5b505050565b80600660008481526020019081526020016000209081610bc69190612197565b507ff8e1a15aba9398e019f0b49df1a4fde98ee17ae345cb5f6b5e2c27f5033e8ce782604051610bf69190611b7e565b60405180910390a15050565b610c9c838383604051602401610c1a93929190612269565b6040516020818303038152906040527f1c7ec448000000000000000000000000000000000000000000000000000000007bffffffffffffffffffffffffffffffffffffffffffffffffffffffff19166020820180517bffffffffffffffffffffffffffffffffffffffffffffffffffffffff83818316178352505050506114cd565b505050565b600080610cad846112cb565b9050600073ffffffffffffffffffffffffffffffffffffffff168373ffffffffffffffffffffffffffffffffffffffff1614610cef57610cee8184866114e7565b5b600073ffffffffffffffffffffffffffffffffffffffff168173ffffffffffffffffffffffffffffffffffffffff1614610d8057610d31600085600080611308565b6001600360008373ffffffffffffffffffffffffffffffffffffffff1673ffffffffffffffffffffffffffffffffffffffff168152602001908152602001600020600082825403925050819055505b600073ffffffffffffffffffffffffffffffffffffffff168573ffffffffffffffffffffffffffffffffffffffff1614610e03576001600360008773ffffffffffffffffffffffffffffffffffffffff1673ffffffffffffffffffffffffffffffffffffffff168152602001908152602001600020600082825401925050819055505b846002600086815260200190815260200160002060006101000a81548173ffffffffffffffffffffffffffffffffffffffff021916908373ffffffffffffffffffffffffffffffffffffffff160217905550838573ffffffffffffffffffffffffffffffffffffffff168273ffffffffffffffffffffffffffffffffffffffff167fddf252ad1be2c89b69c2b068fc378daa952ba7f163c4a11628f55a4df523b3ef60405160405180910390a4809150509392505050565b600073ffffffffffffffffffffffffffffffffffffffff168273ffffffffffffffffffffffffffffffffffffffff1603610f2c57816040517f5b08ba18000000000000000000000000000000000000000000000000000000008152600401610f239190611ae8565b60405180910390fd5b80600560008573ffffffffffffffffffffffffffffffffffffffff1673ffffffffffffffffffffffffffffffffffffffff16815260200190815260200160002060008473ffffffffffffffffffffffffffffffffffffffff1673ffffffffffffffffffffffffffffffffffffffff16815260200190815260200160002060006101000a81548160ff0219169083151502179055508173ffffffffffffffffffffffffffffffffffffffff168373ffffffffffffffffffffffffffffffffffffffff167f17307eab39ab6107e8899845ad3d59bd9653f200f220920489ca2b5937696c318360405161101d9190611977565b60405180910390a3505050565b60008373ffffffffffffffffffffffffffffffffffffffff163b11156111db578273ffffffffffffffffffffffffffffffffffffffff1663150b7a0261106e610a93565b8685856040518563ffffffff1660e01b815260040161109094939291906122fc565b6020604051808303816000875af19250505080156110cc57506040513d601f19601f820116820180604052508101906110c9919061235d565b60015b611150573d80600081146110fc576040519150601f19603f3d011682016040523d82523d6000602084013e611101565b606091505b50600081510361114857836040517f64a0ae9200000000000000000000000000000000000000000000000000000000815260040161113f9190611ae8565b60405180910390fd5b805181602001fd5b63150b7a0260e01b7bffffffffffffffffffffffffffffffffffffffffffffffffffffffff1916817bffffffffffffffffffffffffffffffffffffffffffffffffffffffff1916146111d957836040517f64a0ae920000000000000000000000000000000000000000000000000000000081526004016111d09190611ae8565b60405180910390fd5b505b50505050565b606060405180602001604052806000815250905090565b6060611203826109ce565b50600061120e6111e1565b9050600081511161122e5760405180602001604052806000815250611259565b80611238846115ab565b604051602001611249929190611fc7565b6040516020818303038152906040525b915050919050565b60007f01ffc9a7000000000000000000000000000000000000000000000000000000007bffffffffffffffffffffffffffffffffffffffffffffffffffffffff1916827bffffffffffffffffffffffffffffffffffffffffffffffffffffffff1916149050919050565b60006002600083815260200190815260200160002060009054906101000a900473ffffffffffffffffffffffffffffffffffffffff169050919050565b80806113415750600073ffffffffffffffffffffffffffffffffffffffff168273ffffffffffffffffffffffffffffffffffffffff1614155b15611475576000611351846109ce565b9050600073ffffffffffffffffffffffffffffffffffffffff168373ffffffffffffffffffffffffffffffffffffffff16141580156113bc57508273ffffffffffffffffffffffffffffffffffffffff168173ffffffffffffffffffffffffffffffffffffffff1614155b80156113cf57506113cd8184610858565b155b1561141157826040517fa9fbf51f0000000000000000000000000000000000000000000000000000000081526004016114089190611ae8565b60405180910390fd5b811561147357838573ffffffffffffffffffffffffffffffffffffffff168273ffffffffffffffffffffffffffffffffffffffff167f8c5be1e5ebec7d5bd14f71427d1e84f3dd0314c0f7b2291e5b200ac8c7c3b92560405160405180910390a45b505b836004600085815260200190815260200160002060006101000a81548173ffffffffffffffffffffffffffffffffffffffff021916908373ffffffffffffffffffffffffffffffffffffffff16021790555050505050565b6114e4816114dc61167961169a565b63ffffffff16565b50565b6114f28383836116a5565b6115a657600073ffffffffffffffffffffffffffffffffffffffff168373ffffffffffffffffffffffffffffffffffffffff160361156757806040517f7e27328900000000000000000000000000000000000000000000000000000000815260040161155e9190611b7e565b60405180910390fd5b81816040517f177e802f00000000000000000000000000000000000000000000000000000000815260040161159d92919061238a565b60405180910390fd5b505050565b6060600060016115ba84611766565b01905060008167ffffffffffffffff8111156115d9576115d8611c8f565b5b6040519080825280601f01601f19166020018201604052801561160b5781602001600182028036833780820191505090505b509050600082602001820190505b60011561166e578080600190039150507f3031323334353637383961626364656600000000000000000000000000000000600a86061a8153600a8581611662576116616123b3565b5b04945060008503611619575b819350505050919050565b60006a636f6e736f6c652e6c6f679050600080835160208501845afa505050565b6118b9819050919050565b60008073ffffffffffffffffffffffffffffffffffffffff168373ffffffffffffffffffffffffffffffffffffffff161415801561175d57508273ffffffffffffffffffffffffffffffffffffffff168473ffffffffffffffffffffffffffffffffffffffff16148061171e575061171d8484610858565b5b8061175c57508273ffffffffffffffffffffffffffffffffffffffff1661174483610a56565b73ffffffffffffffffffffffffffffffffffffffff16145b5b90509392505050565b600080600090507a184f03e93ff9f4daa797ed6e38ed64bf6a1f01000000000000000083106117c4577a184f03e93ff9f4daa797ed6e38ed64bf6a1f01000000000000000083816117ba576117b96123b3565b5b0492506040810190505b6d04ee2d6d415b85acef81000000008310611801576d04ee2d6d415b85acef810000000083816117f7576117f66123b3565b5b0492506020810190505b662386f26fc10000831061183057662386f26fc100008381611826576118256123b3565b5b0492506010810190505b6305f5e1008310611859576305f5e100838161184f5761184e6123b3565b5b0492506008810190505b612710831061187e576127108381611874576118736123b3565b5b0492506004810190505b606483106118a15760648381611897576118966123b3565b5b0492506002810190505b600a83106118b0576001810190505b80915050919050565b6118c16123e2565b565b6000604051905090565b600080fd5b600080fd5b60007fffffffff0000000000000000000000000000000000000000000000000000000082169050919050565b61190c816118d7565b811461191757600080fd5b50565b60008135905061192981611903565b92915050565b600060208284031215611945576119446118cd565b5b60006119538482850161191a565b91505092915050565b60008115159050919050565b6119718161195c565b82525050565b600060208201905061198c6000830184611968565b92915050565b600081519050919050565b600082825260208201905092915050565b60005b838110156119cc5780820151818401526020810190506119b1565b60008484015250505050565b6000601f19601f8301169050919050565b60006119f482611992565b6119fe818561199d565b9350611a0e8185602086016119ae565b611a17816119d8565b840191505092915050565b60006020820190508181036000830152611a3c81846119e9565b905092915050565b6000819050919050565b611a5781611a44565b8114611a6257600080fd5b50565b600081359050611a7481611a4e565b92915050565b600060208284031215611a9057611a8f6118cd565b5b6000611a9e84828501611a65565b91505092915050565b600073ffffffffffffffffffffffffffffffffffffffff82169050919050565b6000611ad282611aa7565b9050919050565b611ae281611ac7565b82525050565b6000602082019050611afd6000830184611ad9565b92915050565b611b0c81611ac7565b8114611b1757600080fd5b50565b600081359050611b2981611b03565b92915050565b60008060408385031215611b4657611b456118cd565b5b6000611b5485828601611b1a565b9250506020611b6585828601611a65565b9150509250929050565b611b7881611a44565b82525050565b6000602082019050611b936000830184611b6f565b92915050565b600080600060608486031215611bb257611bb16118cd565b5b6000611bc086828701611b1a565b9350506020611bd186828701611b1a565b9250506040611be286828701611a65565b9150509250925092565b600060208284031215611c0257611c016118cd565b5b6000611c1084828501611b1a565b91505092915050565b611c228161195c565b8114611c2d57600080fd5b50565b600081359050611c3f81611c19565b92915050565b60008060408385031215611c5c57611c5b6118cd565b5b6000611c6a85828601611b1a565b9250506020611c7b85828601611c30565b9150509250929050565b600080fd5b600080fd5b7f4e487b7100000000000000000000000000000000000000000000000000000000600052604160045260246000fd5b611cc7826119d8565b810181811067ffffffffffffffff82111715611ce657611ce5611c8f565b5b80604052505050565b6000611cf96118c3565b9050611d058282611cbe565b919050565b600067ffffffffffffffff821115611d2557611d24611c8f565b5b611d2e826119d8565b9050602081019050919050565b82818337600083830152505050565b6000611d5d611d5884611d0a565b611cef565b905082815260208101848484011115611d7957611d78611c8a565b5b611d84848285611d3b565b509392505050565b600082601f830112611da157611da0611c85565b5b8135611db1848260208601611d4a565b91505092915050565b60008060008060808587031215611dd457611dd36118cd565b5b6000611de287828801611b1a565b9450506020611df387828801611b1a565b9350506040611e0487828801611a65565b925050606085013567ffffffffffffffff811115611e2557611e246118d2565b5b611e3187828801611d8c565b91505092959194509250565b60008060408385031215611e5457611e536118cd565b5b6000611e6285828601611b1a565b9250506020611e7385828601611b1a565b9150509250929050565b7f4e487b7100000000000000000000000000000000000000000000000000000000600052602260045260246000fd5b60006002820490506001821680611ec457607f821691505b602082108103611ed757611ed6611e7d565b5b50919050565b7f4e487b7100000000000000000000000000000000000000000000000000000000600052601160045260246000fd5b6000611f1782611a44565b91507fffffffffffffffffffffffffffffffffffffffffffffffffffffffffffffffff8203611f4957611f48611edd565b5b600182019050919050565b6000606082019050611f696000830186611ad9565b611f766020830185611b6f565b611f836040830184611ad9565b949350505050565b600081905092915050565b6000611fa182611992565b611fab8185611f8b565b9350611fbb8185602086016119ae565b80840191505092915050565b6000611fd38285611f96565b9150611fdf8284611f96565b91508190509392505050565b60008190508160005260206000209050919050565b60006020601f8301049050919050565b600082821b905092915050565b60006008830261204d7fffffffffffffffffffffffffffffffffffffffffffffffffffffffffffffffff82612010565b6120578683612010565b95508019841693508086168417925050509392505050565b6000819050919050565b600061209461208f61208a84611a44565b61206f565b611a44565b9050919050565b6000819050919050565b6120ae83612079565b6120c26120ba8261209b565b84845461201d565b825550505050565b600090565b6120d76120ca565b6120e28184846120a5565b505050565b5b81811015612106576120fb6000826120cf565b6001810190506120e8565b5050565b601f82111561214b5761211c81611feb565b61212584612000565b81016020851015612134578190505b61214861214085612000565b8301826120e7565b50505b505050565b600082821c905092915050565b600061216e60001984600802612150565b1980831691505092915050565b6000612187838361215d565b9150826002028217905092915050565b6121a082611992565b67ffffffffffffffff8111156121b9576121b8611c8f565b5b6121c38254611eac565b6121ce82828561210a565b600060209050601f83116001811461220157600084156121ef578287015190505b6121f9858261217b565b865550612261565b601f19841661220f86611feb565b60005b8281101561223757848901518255600182019150602085019450602081019050612212565b868310156122545784890151612250601f89168261215d565b8355505b6001600288020188555050505b505050505050565b6000606082019050818103600083015261228381866119e9565b90506122926020830185611b6f565b61229f6040830184611ad9565b949350505050565b600081519050919050565b600082825260208201905092915050565b60006122ce826122a7565b6122d881856122b2565b93506122e88185602086016119ae565b6122f1816119d8565b840191505092915050565b60006080820190506123116000830187611ad9565b61231e6020830186611ad9565b61232b6040830185611b6f565b818103606083015261233d81846122c3565b905095945050505050565b60008151905061235781611903565b92915050565b600060208284031215612373576123726118cd565b5b600061238184828501612348565b91505092915050565b600060408201905061239f6000830185611ad9565b6123ac6020830184611b6f565b9392505050565b7f4e487b7100000000000000000000000000000000000000000000000000000000600052601260045260246000fd5b7f4e487b7100000000000000000000000000000000000000000000000000000000600052605160045260246000fdfe546865204e465420494420257320686173206265656e206d696e74656420746f20257368747470733a2f2f7465616c2d63617573616c2d616e742d3737322e6d7970696e6174612e636c6f75642f697066732f516d646267564231657567316b527166427a335048393138464250556d55536f464a444e74534d367a6538514e473f5f676c3d312a3169306237676c2a5f67612a4e7a67344e54677a4d6a51304c6a45334d4455794e5459334f54412e2a5f67615f35524d505847313454452a4d5463774e5449314e6a63344f5334784c6a45754d5463774e5449314f5455304f4334324d4334774c6a412ea26469706673582212204df34adcd1a0f1cf75f31baa3b26977b93209fdf699f2f0ba684f82b9a998e4a64736f6c63430008140033",
  "linkReferences": {},
  "deployedLinkReferences": {}
}